{
    "_format": "hh-sol-artifact-1",
    "contractName": "Fields",
    "sourceName": "contracts/Fields.sol",
    "abi": [
        {
            "inputs": [],
            "stateMutability": "nonpayable",
            "type": "constructor"
        },
        {
            "anonymous": false,
            "inputs": [
                {
                    "indexed": true,
                    "internalType": "address",
                    "name": "from",
                    "type": "address"
                },
                {
                    "indexed": false,
                    "internalType": "uint256",
                    "name": "timestamp",
                    "type": "uint256"
                },
                {
                    "components": [
                        {
                            "internalType": "uint256",
                            "name": "id",
                            "type": "uint256"
                        },
                        {
                            "internalType": "string",
                            "name": "name",
                            "type": "string"
                        }
                    ],
                    "indexed": false,
                    "internalType": "struct Fields.Field",
                    "name": "field",
                    "type": "tuple"
                },
                {
                    "indexed": false,
                    "internalType": "uint256",
                    "name": "amountOfMoney",
                    "type": "uint256"
                }
            ],
            "name": "Bounty",
            "type": "event"
        },
        {
            "anonymous": false,
            "inputs": [
                {
                    "indexed": true,
                    "internalType": "address",
                    "name": "from",
                    "type": "address"
                },
                {
                    "indexed": false,
                    "internalType": "uint256",
                    "name": "timestamp",
                    "type": "uint256"
                },
                {
                    "components": [
                        {
                            "internalType": "uint256",
                            "name": "id",
                            "type": "uint256"
                        },
                        {
                            "internalType": "string",
                            "name": "name",
                            "type": "string"
                        }
                    ],
                    "indexed": false,
                    "internalType": "struct Fields.Field",
                    "name": "field",
                    "type": "tuple"
                },
                {
                    "indexed": false,
                    "internalType": "uint256",
                    "name": "amountOfMoney",
                    "type": "uint256"
                }
            ],
            "name": "Invest",
            "type": "event"
        },
        {
            "anonymous": false,
            "inputs": [
                {
                    "indexed": true,
                    "internalType": "address",
                    "name": "from",
                    "type": "address"
                },
                {
                    "indexed": false,
                    "internalType": "uint256",
                    "name": "timestamp",
                    "type": "uint256"
                },
                {
                    "components": [
                        {
                            "internalType": "uint256",
                            "name": "id",
                            "type": "uint256"
                        },
                        {
                            "internalType": "string",
                            "name": "name",
                            "type": "string"
                        }
                    ],
                    "indexed": false,
                    "internalType": "struct Fields.Field",
                    "name": "field",
                    "type": "tuple"
                },
                {
                    "indexed": false,
                    "internalType": "uint256",
                    "name": "amountOfMoney",
                    "type": "uint256"
                }
            ],
            "name": "RunField",
            "type": "event"
        },
        {
            "inputs": [],
            "name": "USDc",
            "outputs": [
                {
                    "internalType": "contract USDC",
                    "name": "",
                    "type": "address"
                }
            ],
            "stateMutability": "view",
            "type": "function"
        },
        {
            "inputs": [
                {
                    "internalType": "string",
                    "name": "name",
                    "type": "string"
                }
            ],
            "name": "beFarmer",
            "outputs": [],
            "stateMutability": "nonpayable",
            "type": "function"
        },
        {
            "inputs": [],
            "name": "defaultMaxMoney",
            "outputs": [
                {
                    "internalType": "uint256",
                    "name": "",
                    "type": "uint256"
                }
            ],
            "stateMutability": "view",
            "type": "function"
        },
        {
            "inputs": [],
            "name": "fieldId",
            "outputs": [
                {
                    "internalType": "uint256",
                    "name": "",
                    "type": "uint256"
                }
            ],
            "stateMutability": "view",
            "type": "function"
        },
        {
            "inputs": [
                {
                    "internalType": "uint256",
                    "name": "Id",
                    "type": "uint256"
                }
            ],
            "name": "getAddressOfInvestedMoney",
            "outputs": [
                {
                    "internalType": "uint256",
                    "name": "",
                    "type": "uint256"
                }
            ],
            "stateMutability": "view",
            "type": "function"
        },
        {
            "inputs": [
                {
                    "internalType": "uint256",
                    "name": "Id",
                    "type": "uint256"
                }
            ],
            "name": "getBountiesToContract",
            "outputs": [],
            "stateMutability": "nonpayable",
            "type": "function"
        },
        {
            "inputs": [
                {
                    "internalType": "uint256",
                    "name": "Id",
                    "type": "uint256"
                }
            ],
            "name": "getFarmer",
            "outputs": [
                {
                    "internalType": "address",
                    "name": "",
                    "type": "address"
                }
            ],
            "stateMutability": "view",
            "type": "function"
        },
        {
            "inputs": [
                {
                    "internalType": "uint256",
                    "name": "Id",
                    "type": "uint256"
                }
            ],
            "name": "getFieldName",
            "outputs": [
                {
                    "internalType": "string",
                    "name": "",
                    "type": "string"
                }
            ],
            "stateMutability": "view",
            "type": "function"
        },
        {
            "inputs": [
                {
                    "internalType": "uint256",
                    "name": "Id",
                    "type": "uint256"
                }
            ],
            "name": "getTotalLockedMoney",
            "outputs": [
                {
                    "internalType": "uint256",
                    "name": "",
                    "type": "uint256"
                }
            ],
            "stateMutability": "view",
            "type": "function"
        },
        {
            "inputs": [
                {
                    "internalType": "uint256",
                    "name": "Id",
                    "type": "uint256"
                },
                {
                    "internalType": "uint256",
                    "name": "$USDC",
                    "type": "uint256"
                }
            ],
            "name": "lockMoney",
            "outputs": [],
            "stateMutability": "nonpayable",
            "type": "function"
        },
        {
            "inputs": [
                {
                    "internalType": "uint256",
                    "name": "Id",
                    "type": "uint256"
                }
            ],
            "name": "runField",
            "outputs": [],
            "stateMutability": "nonpayable",
            "type": "function"
        },
        {
            "inputs": [
                {
                    "internalType": "uint256",
                    "name": "Id",
                    "type": "uint256"
                }
            ],
            "name": "withdrawBounty",
            "outputs": [],
            "stateMutability": "nonpayable",
            "type": "function"
        }
    ],
    "bytecode": "0x6080604052600180556207a12060025534801561001b57600080fd5b50731ad483798422423e3471d2fa8a7ef6eb83bd49266000806101000a81548173ffffffffffffffffffffffffffffffffffffffff021916908373ffffffffffffffffffffffffffffffffffffffff16021790555061181a8061007f6000396000f3fe608060405234801561001057600080fd5b50600436106100b45760003560e01c80635a8e77a5116100715780635a8e77a51461018b5780635eb40296146101a757806360677174146101c3578063a3b0d889146101e1578063ad0caa7614610211578063afcc4ad514610241576100b4565b80630b3ec401146100b9578063124d72e4146100e9578063129da7bf1461010557806339f3848c146101355780635319d1b714610151578063584296341461016f575b600080fd5b6100d360048036038101906100ce9190610f59565b61025f565b6040516100e0919061101f565b60405180910390f35b61010360048036038101906100fe9190610f59565b610304565b005b61011f600480360381019061011a9190610f59565b6104ca565b60405161012c9190611050565b60405180910390f35b61014f600480360381019061014a919061106b565b610524565b005b61015961082a565b6040516101669190611050565b60405180910390f35b610189600480360381019061018491906111e0565b610830565b005b6101a560048036038101906101a09190610f59565b6108ca565b005b6101c160048036038101906101bc9190610f59565b610b7c565b005b6101cb610de8565b6040516101d89190611050565b60405180910390f35b6101fb60048036038101906101f69190610f59565b610dee565b6040516102089190611050565b60405180910390f35b61022b60048036038101906102269190610f59565b610e0b565b604051610238919061126a565b60405180910390f35b610249610e48565b60405161025691906112e4565b60405180910390f35b606060036000838152602001908152602001600020805461027f9061132e565b80601f01602080910402602001604051908101604052809291908181526020018280546102ab9061132e565b80156102f85780601f106102cd576101008083540402835291602001916102f8565b820191906000526020600020905b8154815290600101906020018083116102db57829003601f168201915b50505050509050919050565b60008054906101000a900473ffffffffffffffffffffffffffffffffffffffff1673ffffffffffffffffffffffffffffffffffffffff1663a9059cbb61034983610e0b565b6002546040518363ffffffff1660e01b8152600401610369929190611360565b602060405180830381600087803b15801561038357600080fd5b505af1158015610397573d6000803e3d6000fd5b505050506040513d601f19601f820116820180604052508101906103bb91906113c1565b506103c581610e0b565b73ffffffffffffffffffffffffffffffffffffffff167f16a49f5e1907bbf3fea6029b18ea6e01a53d27f1e768dc0ff6ff066031b33c3b42604051806040016040528085815260200160036000878152602001908152602001600020805461042c9061132e565b80601f01602080910402602001604051908101604052809291908181526020018280546104589061132e565b80156104a55780601f1061047a576101008083540402835291602001916104a5565b820191906000526020600020905b81548152906001019060200180831161048857829003601f168201915b50505050508152506002546040516104bf93929190611484565b60405180910390a250565b60006006600083815260200190815260200160002060003373ffffffffffffffffffffffffffffffffffffffff1673ffffffffffffffffffffffffffffffffffffffff168152602001908152602001600020549050919050565b3373ffffffffffffffffffffffffffffffffffffffff163181111561057e576040517f08c379a00000000000000000000000000000000000000000000000000000000081526004016105759061150e565b60405180910390fd5b60025461058a83610dee565b82610595919061155d565b11156105d6576040517f08c379a00000000000000000000000000000000000000000000000000000000081526004016105cd906115ff565b60405180910390fd5b806006600084815260200190815260200160002060003373ffffffffffffffffffffffffffffffffffffffff1673ffffffffffffffffffffffffffffffffffffffff1681526020019081526020016000206000828254610636919061155d565b9250508190555080600560008481526020019081526020016000206000828254610660919061155d565b9250508190555060008054906101000a900473ffffffffffffffffffffffffffffffffffffffff1673ffffffffffffffffffffffffffffffffffffffff166323b872dd3330620f4240856106b4919061161f565b6040518463ffffffff1660e01b81526004016106d293929190611679565b602060405180830381600087803b1580156106ec57600080fd5b505af1158015610700573d6000803e3d6000fd5b505050506040513d601f19601f8201168201806040525081019061072491906113c1565b503373ffffffffffffffffffffffffffffffffffffffff167f29df4da59fadd3bb0b872ef8b21323f8eedf82d5a189a1c451c97d8c718b456c42604051806040016040528086815260200160036000888152602001908152602001600020805461078d9061132e565b80601f01602080910402602001604051908101604052809291908181526020018280546107b99061132e565b80156108065780601f106107db57610100808354040283529160200191610806565b820191906000526020600020905b8154815290600101906020018083116107e957829003601f168201915b50505050508152508460405161081e93929190611484565b60405180910390a25050565b60015481565b806003600060015481526020019081526020016000209080519060200190610859929190610e6c565b503360046000600154815260200190815260200160002060006101000a81548173ffffffffffffffffffffffffffffffffffffffff021916908373ffffffffffffffffffffffffffffffffffffffff16021790555060018060008282546108c0919061155d565b9250508190555050565b60006006600083815260200190815260200160002060003373ffffffffffffffffffffffffffffffffffffffff1673ffffffffffffffffffffffffffffffffffffffff168152602001908152602001600020541161095d576040517f08c379a000000000000000000000000000000000000000000000000000000000815260040161095490611722565b60405180910390fd5b60008054906101000a900473ffffffffffffffffffffffffffffffffffffffff1673ffffffffffffffffffffffffffffffffffffffff1663a9059cbb6109a283610e0b565b6002546006600086815260200190815260200160002060003373ffffffffffffffffffffffffffffffffffffffff1673ffffffffffffffffffffffffffffffffffffffff1681526020019081526020016000205460008054906101000a900473ffffffffffffffffffffffffffffffffffffffff1673ffffffffffffffffffffffffffffffffffffffff166370a08231306040518263ffffffff1660e01b8152600401610a4f919061126a565b60206040518083038186803b158015610a6757600080fd5b505afa158015610a7b573d6000803e3d6000fd5b505050506040513d601f19601f82011682018060405250810190610a9f9190611757565b610aa9919061161f565b610ab391906117b3565b6040518363ffffffff1660e01b8152600401610ad0929190611360565b602060405180830381600087803b158015610aea57600080fd5b505af1158015610afe573d6000803e3d6000fd5b505050506040513d601f19601f82011682018060405250810190610b2291906113c1565b5060006006600083815260200190815260200160002060003373ffffffffffffffffffffffffffffffffffffffff1673ffffffffffffffffffffffffffffffffffffffff1681526020019081526020016000208190555050565b60008054906101000a900473ffffffffffffffffffffffffffffffffffffffff1673ffffffffffffffffffffffffffffffffffffffff1663a9059cbb610bc183610e0b565b60008054906101000a900473ffffffffffffffffffffffffffffffffffffffff1673ffffffffffffffffffffffffffffffffffffffff166370a08231306040518263ffffffff1660e01b8152600401610c1a919061126a565b60206040518083038186803b158015610c3257600080fd5b505afa158015610c46573d6000803e3d6000fd5b505050506040513d601f19601f82011682018060405250810190610c6a9190611757565b6040518363ffffffff1660e01b8152600401610c87929190611360565b602060405180830381600087803b158015610ca157600080fd5b505af1158015610cb5573d6000803e3d6000fd5b505050506040513d601f19601f82011682018060405250810190610cd991906113c1565b50610ce381610e0b565b73ffffffffffffffffffffffffffffffffffffffff167fb21d7f4f7101a2f2c03c4a457d2cc2edfe9a94692e32baa3fe35ccf06d572fbb426040518060400160405280858152602001600360008781526020019081526020016000208054610d4a9061132e565b80601f0160208091040260200160405190810160405280929190818152602001828054610d769061132e565b8015610dc35780601f10610d9857610100808354040283529160200191610dc3565b820191906000526020600020905b815481529060010190602001808311610da657829003601f168201915b5050505050815250600254604051610ddd93929190611484565b60405180910390a250565b60025481565b600060056000838152602001908152602001600020549050919050565b60006004600083815260200190815260200160002060009054906101000a900473ffffffffffffffffffffffffffffffffffffffff169050919050565b60008054906101000a900473ffffffffffffffffffffffffffffffffffffffff1681565b828054610e789061132e565b90600052602060002090601f016020900481019282610e9a5760008555610ee1565b82601f10610eb357805160ff1916838001178555610ee1565b82800160010185558215610ee1579182015b82811115610ee0578251825591602001919060010190610ec5565b5b509050610eee9190610ef2565b5090565b5b80821115610f0b576000816000905550600101610ef3565b5090565b6000604051905090565b600080fd5b600080fd5b6000819050919050565b610f3681610f23565b8114610f4157600080fd5b50565b600081359050610f5381610f2d565b92915050565b600060208284031215610f6f57610f6e610f19565b5b6000610f7d84828501610f44565b91505092915050565b600081519050919050565b600082825260208201905092915050565b60005b83811015610fc0578082015181840152602081019050610fa5565b83811115610fcf576000848401525b50505050565b6000601f19601f8301169050919050565b6000610ff182610f86565b610ffb8185610f91565b935061100b818560208601610fa2565b61101481610fd5565b840191505092915050565b600060208201905081810360008301526110398184610fe6565b905092915050565b61104a81610f23565b82525050565b60006020820190506110656000830184611041565b92915050565b6000806040838503121561108257611081610f19565b5b600061109085828601610f44565b92505060206110a185828601610f44565b9150509250929050565b600080fd5b600080fd5b7f4e487b7100000000000000000000000000000000000000000000000000000000600052604160045260246000fd5b6110ed82610fd5565b810181811067ffffffffffffffff8211171561110c5761110b6110b5565b5b80604052505050565b600061111f610f0f565b905061112b82826110e4565b919050565b600067ffffffffffffffff82111561114b5761114a6110b5565b5b61115482610fd5565b9050602081019050919050565b82818337600083830152505050565b600061118361117e84611130565b611115565b90508281526020810184848401111561119f5761119e6110b0565b5b6111aa848285611161565b509392505050565b600082601f8301126111c7576111c66110ab565b5b81356111d7848260208601611170565b91505092915050565b6000602082840312156111f6576111f5610f19565b5b600082013567ffffffffffffffff81111561121457611213610f1e565b5b611220848285016111b2565b91505092915050565b600073ffffffffffffffffffffffffffffffffffffffff82169050919050565b600061125482611229565b9050919050565b61126481611249565b82525050565b600060208201905061127f600083018461125b565b92915050565b6000819050919050565b60006112aa6112a56112a084611229565b611285565b611229565b9050919050565b60006112bc8261128f565b9050919050565b60006112ce826112b1565b9050919050565b6112de816112c3565b82525050565b60006020820190506112f960008301846112d5565b92915050565b7f4e487b7100000000000000000000000000000000000000000000000000000000600052602260045260246000fd5b6000600282049050600182168061134657607f821691505b6020821081141561135a576113596112ff565b5b50919050565b6000604082019050611375600083018561125b565b6113826020830184611041565b9392505050565b60008115159050919050565b61139e81611389565b81146113a957600080fd5b50565b6000815190506113bb81611395565b92915050565b6000602082840312156113d7576113d6610f19565b5b60006113e5848285016113ac565b91505092915050565b6113f781610f23565b82525050565b600082825260208201905092915050565b600061141982610f86565b61142381856113fd565b9350611433818560208601610fa2565b61143c81610fd5565b840191505092915050565b600060408301600083015161145f60008601826113ee565b5060208301518482036020860152611477828261140e565b9150508091505092915050565b60006060820190506114996000830186611041565b81810360208301526114ab8185611447565b90506114ba6040830184611041565b949350505050565b7f596f7520646f6e2774206861766520656e6f756768206d6f6e65790000000000600082015250565b60006114f8601b83610f91565b9150611503826114c2565b602082019050919050565b60006020820190508181036000830152611527816114eb565b9050919050565b7f4e487b7100000000000000000000000000000000000000000000000000000000600052601160045260246000fd5b600061156882610f23565b915061157383610f23565b9250827fffffffffffffffffffffffffffffffffffffffffffffffffffffffffffffffff038211156115a8576115a761152e565b5b828201905092915050565b7f596f7520646f6e277420696e766573742074686174206d756368206d6f6e6579600082015250565b60006115e9602083610f91565b91506115f4826115b3565b602082019050919050565b60006020820190508181036000830152611618816115dc565b9050919050565b600061162a82610f23565b915061163583610f23565b9250817fffffffffffffffffffffffffffffffffffffffffffffffffffffffffffffffff048311821515161561166e5761166d61152e565b5b828202905092915050565b600060608201905061168e600083018661125b565b61169b602083018561125b565b6116a86040830184611041565b949350505050565b7f596f7520646964206e6f7420696e7665737420616e79206d6f6e657920746f2060008201527f74686973206661726d0000000000000000000000000000000000000000000000602082015250565b600061170c602983610f91565b9150611717826116b0565b604082019050919050565b6000602082019050818103600083015261173b816116ff565b9050919050565b60008151905061175181610f2d565b92915050565b60006020828403121561176d5761176c610f19565b5b600061177b84828501611742565b91505092915050565b7f4e487b7100000000000000000000000000000000000000000000000000000000600052601260045260246000fd5b60006117be82610f23565b91506117c983610f23565b9250826117d9576117d8611784565b5b82820490509291505056fea2646970667358221220223e5fb0b1698468f84cdf975607f21301595e548032f40ee0a0420bae04efae64736f6c63430008090033",
    "linkReferences": {},
    "deployedLinkReferences": {}
}