{
    "_format": "hh-sol-artifact-1",
    "contractName": "Fields",
    "sourceName": "contracts/Fields.sol",
    "abi": [
        {
            "inputs": [],
            "stateMutability": "nonpayable",
            "type": "constructor"
        },
        {
            "anonymous": false,
            "inputs": [
                {
                    "indexed": true,
                    "internalType": "address",
                    "name": "from",
                    "type": "address"
                },
                {
                    "indexed": false,
                    "internalType": "uint256",
                    "name": "timestamp",
                    "type": "uint256"
                },
                {
                    "components": [
                        {
                            "internalType": "uint256",
                            "name": "id",
                            "type": "uint256"
                        },
                        {
                            "internalType": "string",
                            "name": "name",
                            "type": "string"
                        },
                        {
                            "internalType": "address",
                            "name": "owner",
                            "type": "address"
                        },
                        {
                            "internalType": "uint256",
                            "name": "containsMoney",
                            "type": "uint256"
                        },
                        {
                            "internalType": "uint256",
                            "name": "limitOfInvest",
                            "type": "uint256"
                        }
                    ],
                    "indexed": false,
                    "internalType": "struct Fields.Field",
                    "name": "field",
                    "type": "tuple"
                },
                {
                    "indexed": false,
                    "internalType": "uint256",
                    "name": "amountOfMoney",
                    "type": "uint256"
                }
            ],
            "name": "Bounty",
            "type": "event"
        },
        {
            "anonymous": false,
            "inputs": [
                {
                    "indexed": true,
                    "internalType": "address",
                    "name": "from",
                    "type": "address"
                },
                {
                    "indexed": false,
                    "internalType": "uint256",
                    "name": "timestamp",
                    "type": "uint256"
                },
                {
                    "components": [
                        {
                            "internalType": "uint256",
                            "name": "id",
                            "type": "uint256"
                        },
                        {
                            "internalType": "string",
                            "name": "name",
                            "type": "string"
                        },
                        {
                            "internalType": "address",
                            "name": "owner",
                            "type": "address"
                        },
                        {
                            "internalType": "uint256",
                            "name": "containsMoney",
                            "type": "uint256"
                        },
                        {
                            "internalType": "uint256",
                            "name": "limitOfInvest",
                            "type": "uint256"
                        }
                    ],
                    "indexed": false,
                    "internalType": "struct Fields.Field",
                    "name": "field",
                    "type": "tuple"
                },
                {
                    "indexed": false,
                    "internalType": "uint256",
                    "name": "amountOfMoney",
                    "type": "uint256"
                }
            ],
            "name": "Invest",
            "type": "event"
        },
        {
            "anonymous": false,
            "inputs": [
                {
                    "indexed": true,
                    "internalType": "address",
                    "name": "from",
                    "type": "address"
                },
                {
                    "indexed": false,
                    "internalType": "uint256",
                    "name": "timestamp",
                    "type": "uint256"
                },
                {
                    "components": [
                        {
                            "internalType": "uint256",
                            "name": "id",
                            "type": "uint256"
                        },
                        {
                            "internalType": "string",
                            "name": "name",
                            "type": "string"
                        },
                        {
                            "internalType": "address",
                            "name": "owner",
                            "type": "address"
                        },
                        {
                            "internalType": "uint256",
                            "name": "containsMoney",
                            "type": "uint256"
                        },
                        {
                            "internalType": "uint256",
                            "name": "limitOfInvest",
                            "type": "uint256"
                        }
                    ],
                    "indexed": false,
                    "internalType": "struct Fields.Field",
                    "name": "field",
                    "type": "tuple"
                },
                {
                    "indexed": false,
                    "internalType": "uint256",
                    "name": "amountOfMoney",
                    "type": "uint256"
                }
            ],
            "name": "RunField",
            "type": "event"
        },
        {
            "inputs": [],
            "name": "USDc",
            "outputs": [
                {
                    "internalType": "contract USDC",
                    "name": "",
                    "type": "address"
                }
            ],
            "stateMutability": "view",
            "type": "function"
        },
        {
            "inputs": [
                {
                    "internalType": "string",
                    "name": "name",
                    "type": "string"
                }
            ],
            "name": "beFarmer",
            "outputs": [],
            "stateMutability": "nonpayable",
            "type": "function"
        },
        {
            "inputs": [],
            "name": "defaultMaxMoney",
            "outputs": [
                {
                    "internalType": "uint256",
                    "name": "",
                    "type": "uint256"
                }
            ],
            "stateMutability": "view",
            "type": "function"
        },
        {
            "inputs": [],
            "name": "fieldId",
            "outputs": [
                {
                    "internalType": "uint256",
                    "name": "",
                    "type": "uint256"
                }
            ],
            "stateMutability": "view",
            "type": "function"
        },
        {
            "inputs": [
                {
                    "internalType": "uint256",
                    "name": "Id",
                    "type": "uint256"
                }
            ],
            "name": "getAddressOfInvestedMoney",
            "outputs": [
                {
                    "internalType": "uint256",
                    "name": "",
                    "type": "uint256"
                }
            ],
            "stateMutability": "view",
            "type": "function"
        },
        {
            "inputs": [],
            "name": "getAllFields",
            "outputs": [
                {
                    "components": [
                        {
                            "internalType": "uint256",
                            "name": "id",
                            "type": "uint256"
                        },
                        {
                            "internalType": "string",
                            "name": "name",
                            "type": "string"
                        },
                        {
                            "internalType": "address",
                            "name": "owner",
                            "type": "address"
                        },
                        {
                            "internalType": "uint256",
                            "name": "containsMoney",
                            "type": "uint256"
                        },
                        {
                            "internalType": "uint256",
                            "name": "limitOfInvest",
                            "type": "uint256"
                        }
                    ],
                    "internalType": "struct Fields.Field[]",
                    "name": "",
                    "type": "tuple[]"
                }
            ],
            "stateMutability": "view",
            "type": "function"
        },
        {
            "inputs": [
                {
                    "internalType": "uint256",
                    "name": "Id",
                    "type": "uint256"
                },
                {
                    "internalType": "uint256",
                    "name": "$USDC",
                    "type": "uint256"
                }
            ],
            "name": "getBountiesToContract",
            "outputs": [],
            "stateMutability": "nonpayable",
            "type": "function"
        },
        {
            "inputs": [
                {
                    "internalType": "uint256",
                    "name": "_id",
                    "type": "uint256"
                }
            ],
            "name": "getField",
            "outputs": [
                {
                    "components": [
                        {
                            "internalType": "uint256",
                            "name": "id",
                            "type": "uint256"
                        },
                        {
                            "internalType": "string",
                            "name": "name",
                            "type": "string"
                        },
                        {
                            "internalType": "address",
                            "name": "owner",
                            "type": "address"
                        },
                        {
                            "internalType": "uint256",
                            "name": "containsMoney",
                            "type": "uint256"
                        },
                        {
                            "internalType": "uint256",
                            "name": "limitOfInvest",
                            "type": "uint256"
                        }
                    ],
                    "internalType": "struct Fields.Field",
                    "name": "",
                    "type": "tuple"
                }
            ],
            "stateMutability": "view",
            "type": "function"
        },
        {
            "inputs": [
                {
                    "internalType": "uint256",
                    "name": "Id",
                    "type": "uint256"
                },
                {
                    "internalType": "uint256",
                    "name": "$USDC",
                    "type": "uint256"
                }
            ],
            "name": "lockMoney",
            "outputs": [],
            "stateMutability": "nonpayable",
            "type": "function"
        },
        {
            "inputs": [
                {
                    "internalType": "uint256",
                    "name": "Id",
                    "type": "uint256"
                }
            ],
            "name": "runField",
            "outputs": [],
            "stateMutability": "nonpayable",
            "type": "function"
        },
        {
            "inputs": [],
            "name": "setDefaultFarms",
            "outputs": [],
            "stateMutability": "nonpayable",
            "type": "function"
        },
        {
            "inputs": [
                {
                    "internalType": "uint256",
                    "name": "Id",
                    "type": "uint256"
                }
            ],
            "name": "withdrawBounty",
            "outputs": [],
            "stateMutability": "nonpayable",
            "type": "function"
        }
    ],
    "bytecode": "0x608060405260056002556113886003553480156200001c57600080fd5b50735425890298aed601595a70ab815c96711a31bc656000806101000a81548173ffffffffffffffffffffffffffffffffffffffff021916908373ffffffffffffffffffffffffffffffffffffffff160217905550620000816200008760201b60201c565b6200068a565b60016040518060a00160405280600181526020016040518060400160405280601481526020017f4b6f6e796120427567646179205461726c617369000000000000000000000000815250815260200173a02d09d454861a0ccd2e8518886cdcec37ecdd2c73ffffffffffffffffffffffffffffffffffffffff1681526020016000815260200160035481525090806001815401808255809150506001900390600052602060002090600502016000909190919091506000820151816000015560208201518160010190805190602001906200016492919062000575565b5060408201518160020160006101000a81548173ffffffffffffffffffffffffffffffffffffffff021916908373ffffffffffffffffffffffffffffffffffffffff1602179055506060820151816003015560808201518160040155505060016040518060a00160405280600281526020016040518060400160405280601381526020017f4f7264752046696e64696b205461726c61736900000000000000000000000000815250815260200173a02d09d454861a0ccd2e8518886cdcec37ecdd2c73ffffffffffffffffffffffffffffffffffffffff1681526020016000815260200160035481525090806001815401808255809150506001900390600052602060002090600502016000909190919091506000820151816000015560208201518160010190805190602001906200029f92919062000575565b5060408201518160020160006101000a81548173ffffffffffffffffffffffffffffffffffffffff021916908373ffffffffffffffffffffffffffffffffffffffff1602179055506060820151816003015560808201518160040155505060016040518060a00160405280600381526020016040518060400160405280601381526020017f497370617274612047756c205461726c61736900000000000000000000000000815250815260200173a02d09d454861a0ccd2e8518886cdcec37ecdd2c73ffffffffffffffffffffffffffffffffffffffff168152602001600081526020016003548152509080600181540180825580915050600190039060005260206000209060050201600090919091909150600082015181600001556020820151816001019080519060200190620003da92919062000575565b5060408201518160020160006101000a81548173ffffffffffffffffffffffffffffffffffffffff021916908373ffffffffffffffffffffffffffffffffffffffff1602179055506060820151816003015560808201518160040155505060016040518060a00160405280600481526020016040518060400160405280601081526020017f52697a6520436179205461726c61736900000000000000000000000000000000815250815260200173a02d09d454861a0ccd2e8518886cdcec37ecdd2c73ffffffffffffffffffffffffffffffffffffffff1681526020016000815260200160035481525090806001815401808255809150506001900390600052602060002090600502016000909190919091506000820151816000015560208201518160010190805190602001906200051592919062000575565b5060408201518160020160006101000a81548173ffffffffffffffffffffffffffffffffffffffff021916908373ffffffffffffffffffffffffffffffffffffffff16021790555060608201518160030155608082015181600401555050565b828054620005839062000654565b90600052602060002090601f016020900481019282620005a75760008555620005f3565b82601f10620005c257805160ff1916838001178555620005f3565b82800160010185558215620005f3579182015b82811115620005f2578251825591602001919060010190620005d5565b5b50905062000602919062000606565b5090565b5b808211156200062157600081600090555060010162000607565b5090565b7f4e487b7100000000000000000000000000000000000000000000000000000000600052602260045260246000fd5b600060028204905060018216806200066d57607f821691505b6020821081141562000684576200068362000625565b5b50919050565b611e74806200069a6000396000f3fe608060405234801561001057600080fd5b50600436106100b45760003560e01c80635a8e77a5116100715780635a8e77a51461016557806360677174146101815780638cd5a8e81461019f57806392208228146101bb578063add6e420146101d9578063afcc4ad514610209576100b4565b8063124d72e4146100b9578063129da7bf146100d557806339f3848c146101055780634218b90c146101215780635319d1b71461012b5780635842963414610149575b600080fd5b6100d360048036038101906100ce919061142f565b610227565b005b6100ef60048036038101906100ea919061142f565b610358565b6040516100fc919061146b565b60405180910390f35b61011f600480360381019061011a9190611486565b6103b2565b005b610129610616565b005b610133610afc565b604051610140919061146b565b60405180910390f35b610163600480360381019061015e919061160c565b610b02565b005b61017f600480360381019061017a919061142f565b610c10565b005b610189610e31565b604051610196919061146b565b60405180910390f35b6101b960048036038101906101b49190611486565b610e37565b005b6101c3610f88565b6040516101d09190611865565b60405180910390f35b6101f360048036038101906101ee919061142f565b6110ed565b60405161020091906118fd565b60405180910390f35b6102116112d9565b60405161021e919061197e565b60405180910390f35b60008054906101000a900473ffffffffffffffffffffffffffffffffffffffff1673ffffffffffffffffffffffffffffffffffffffff1663a9059cbb61026c836110ed565b60400151610279846110ed565b608001516040518363ffffffff1660e01b815260040161029a9291906119a8565b602060405180830381600087803b1580156102b457600080fd5b505af11580156102c8573d6000803e3d6000fd5b505050506040513d601f19601f820116820180604052508101906102ec9190611a09565b506102f6816110ed565b6040015173ffffffffffffffffffffffffffffffffffffffff167f8dffd7c3deac4f8211465c4f273f21ccf8defe4ef6671b03be464ccd3a54a32f4261033b846110ed565b60035460405161034d93929190611a36565b60405180910390a250565b60006004600083815260200190815260200160002060003373ffffffffffffffffffffffffffffffffffffffff1673ffffffffffffffffffffffffffffffffffffffff168152602001908152602001600020549050919050565b3373ffffffffffffffffffffffffffffffffffffffff163181111561040c576040517f08c379a000000000000000000000000000000000000000000000000000000000815260040161040390611ad1565b60405180910390fd5b610415826110ed565b60800151610422836110ed565b60600151826104319190611b20565b1115610472576040517f08c379a000000000000000000000000000000000000000000000000000000000815260040161046990611bc2565b60405180910390fd5b806004600084815260200190815260200160002060003373ffffffffffffffffffffffffffffffffffffffff1673ffffffffffffffffffffffffffffffffffffffff16815260200190815260200160002060008282546104d29190611b20565b92505081905550806104e3836110ed565b6060018181516104f39190611b20565b9150818152505060008054906101000a900473ffffffffffffffffffffffffffffffffffffffff1673ffffffffffffffffffffffffffffffffffffffff166323b872dd3330620f4240856105479190611be2565b6040518463ffffffff1660e01b815260040161056593929190611c3c565b602060405180830381600087803b15801561057f57600080fd5b505af1158015610593573d6000803e3d6000fd5b505050506040513d601f19601f820116820180604052508101906105b79190611a09565b503373ffffffffffffffffffffffffffffffffffffffff167ff732aa3c119facfcf074fb1399e27b71ed73644a3120f4430f2ba4c978cf73a5426105fa856110ed565b8460405161060a93929190611a36565b60405180910390a25050565b60016040518060a00160405280600181526020016040518060400160405280601481526020017f4b6f6e796120427567646179205461726c617369000000000000000000000000815250815260200173a02d09d454861a0ccd2e8518886cdcec37ecdd2c73ffffffffffffffffffffffffffffffffffffffff1681526020016000815260200160035481525090806001815401808255809150506001900390600052602060002090600502016000909190919091506000820151816000015560208201518160010190805190602001906106f19291906112fd565b5060408201518160020160006101000a81548173ffffffffffffffffffffffffffffffffffffffff021916908373ffffffffffffffffffffffffffffffffffffffff1602179055506060820151816003015560808201518160040155505060016040518060a00160405280600281526020016040518060400160405280601381526020017f4f7264752046696e64696b205461726c61736900000000000000000000000000815250815260200173a02d09d454861a0ccd2e8518886cdcec37ecdd2c73ffffffffffffffffffffffffffffffffffffffff16815260200160008152602001600354815250908060018154018082558091505060019003906000526020600020906005020160009091909190915060008201518160000155602082015181600101908051906020019061082a9291906112fd565b5060408201518160020160006101000a81548173ffffffffffffffffffffffffffffffffffffffff021916908373ffffffffffffffffffffffffffffffffffffffff1602179055506060820151816003015560808201518160040155505060016040518060a00160405280600381526020016040518060400160405280601381526020017f497370617274612047756c205461726c61736900000000000000000000000000815250815260200173a02d09d454861a0ccd2e8518886cdcec37ecdd2c73ffffffffffffffffffffffffffffffffffffffff1681526020016000815260200160035481525090806001815401808255809150506001900390600052602060002090600502016000909190919091506000820151816000015560208201518160010190805190602001906109639291906112fd565b5060408201518160020160006101000a81548173ffffffffffffffffffffffffffffffffffffffff021916908373ffffffffffffffffffffffffffffffffffffffff1602179055506060820151816003015560808201518160040155505060016040518060a00160405280600481526020016040518060400160405280601081526020017f52697a6520436179205461726c61736900000000000000000000000000000000815250815260200173a02d09d454861a0ccd2e8518886cdcec37ecdd2c73ffffffffffffffffffffffffffffffffffffffff168152602001600081526020016003548152509080600181540180825580915050600190039060005260206000209060050201600090919091909150600082015181600001556020820151816001019080519060200190610a9c9291906112fd565b5060408201518160020160006101000a81548173ffffffffffffffffffffffffffffffffffffffff021916908373ffffffffffffffffffffffffffffffffffffffff16021790555060608201518160030155608082015181600401555050565b60025481565b60016040518060a0016040528060025481526020018381526020013373ffffffffffffffffffffffffffffffffffffffff168152602001600081526020016003548152509080600181540180825580915050600190039060005260206000209060050201600090919091909150600082015181600001556020820151816001019080519060200190610b959291906112fd565b5060408201518160020160006101000a81548173ffffffffffffffffffffffffffffffffffffffff021916908373ffffffffffffffffffffffffffffffffffffffff16021790555060608201518160030155608082015181600401555050600160026000828254610c069190611b20565b9250508190555050565b60006004600083815260200190815260200160002060003373ffffffffffffffffffffffffffffffffffffffff1673ffffffffffffffffffffffffffffffffffffffff1681526020019081526020016000205411610ca3576040517f08c379a0000000000000000000000000000000000000000000000000000000008152600401610c9a90611ce5565b60405180910390fd5b60008054906101000a900473ffffffffffffffffffffffffffffffffffffffff1673ffffffffffffffffffffffffffffffffffffffff1663a9059cbb610ce8836110ed565b604001516003546004600086815260200190815260200160002060003373ffffffffffffffffffffffffffffffffffffffff1673ffffffffffffffffffffffffffffffffffffffff168152602001908152602001600020546005600087815260200190815260200160002054610d5e9190611be2565b610d689190611d34565b6040518363ffffffff1660e01b8152600401610d859291906119a8565b602060405180830381600087803b158015610d9f57600080fd5b505af1158015610db3573d6000803e3d6000fd5b505050506040513d601f19601f82011682018060405250810190610dd79190611a09565b5060006004600083815260200190815260200160002060003373ffffffffffffffffffffffffffffffffffffffff1673ffffffffffffffffffffffffffffffffffffffff1681526020019081526020016000208190555050565b60035481565b6000610e42836110ed565b606001818152505080600560008481526020019081526020016000208190555060008054906101000a900473ffffffffffffffffffffffffffffffffffffffff1673ffffffffffffffffffffffffffffffffffffffff1663a9059cbb610ea7846110ed565b60400151836040518363ffffffff1660e01b8152600401610ec99291906119a8565b602060405180830381600087803b158015610ee357600080fd5b505af1158015610ef7573d6000803e3d6000fd5b505050506040513d601f19601f82011682018060405250810190610f1b9190611a09565b50610f25826110ed565b6040015173ffffffffffffffffffffffffffffffffffffffff167fcec40c1ad178e231b3edea82bd8820acc333641e0e57254cb801ef1b1dd7510c42610f6a856110ed565b600354604051610f7c93929190611a36565b60405180910390a25050565b60606001805480602002602001604051908101604052809291908181526020016000905b828210156110e457838290600052602060002090600502016040518060a001604052908160008201548152602001600182018054610fe990611d94565b80601f016020809104026020016040519081016040528092919081815260200182805461101590611d94565b80156110625780601f1061103757610100808354040283529160200191611062565b820191906000526020600020905b81548152906001019060200180831161104557829003601f168201915b505050505081526020016002820160009054906101000a900473ffffffffffffffffffffffffffffffffffffffff1673ffffffffffffffffffffffffffffffffffffffff1673ffffffffffffffffffffffffffffffffffffffff1681526020016003820154815260200160048201548152505081526020019060010190610fac565b50505050905090565b6110f5611383565b60005b60018054905081101561128057826001828154811061111a57611119611dc6565b5b906000526020600020906005020160000154141561126d576001818154811061114657611145611dc6565b5b90600052602060002090600502016040518060a00160405290816000820154815260200160018201805461117990611d94565b80601f01602080910402602001604051908101604052809291908181526020018280546111a590611d94565b80156111f25780601f106111c7576101008083540402835291602001916111f2565b820191906000526020600020905b8154815290600101906020018083116111d557829003601f168201915b505050505081526020016002820160009054906101000a900473ffffffffffffffffffffffffffffffffffffffff1673ffffffffffffffffffffffffffffffffffffffff1673ffffffffffffffffffffffffffffffffffffffff168152602001600382015481526020016004820154815250509150506112d4565b808061127890611df5565b9150506110f8565b506040518060a0016040528060008152602001604051806020016040528060008152508152602001600073ffffffffffffffffffffffffffffffffffffffff16815260200160008152602001600081525090505b919050565b60008054906101000a900473ffffffffffffffffffffffffffffffffffffffff1681565b82805461130990611d94565b90600052602060002090601f01602090048101928261132b5760008555611372565b82601f1061134457805160ff1916838001178555611372565b82800160010185558215611372579182015b82811115611371578251825591602001919060010190611356565b5b50905061137f91906113c8565b5090565b6040518060a001604052806000815260200160608152602001600073ffffffffffffffffffffffffffffffffffffffff16815260200160008152602001600081525090565b5b808211156113e15760008160009055506001016113c9565b5090565b6000604051905090565b600080fd5b600080fd5b6000819050919050565b61140c816113f9565b811461141757600080fd5b50565b60008135905061142981611403565b92915050565b600060208284031215611445576114446113ef565b5b60006114538482850161141a565b91505092915050565b611465816113f9565b82525050565b6000602082019050611480600083018461145c565b92915050565b6000806040838503121561149d5761149c6113ef565b5b60006114ab8582860161141a565b92505060206114bc8582860161141a565b9150509250929050565b600080fd5b600080fd5b6000601f19601f8301169050919050565b7f4e487b7100000000000000000000000000000000000000000000000000000000600052604160045260246000fd5b611519826114d0565b810181811067ffffffffffffffff82111715611538576115376114e1565b5b80604052505050565b600061154b6113e5565b90506115578282611510565b919050565b600067ffffffffffffffff821115611577576115766114e1565b5b611580826114d0565b9050602081019050919050565b82818337600083830152505050565b60006115af6115aa8461155c565b611541565b9050828152602081018484840111156115cb576115ca6114cb565b5b6115d684828561158d565b509392505050565b600082601f8301126115f3576115f26114c6565b5b813561160384826020860161159c565b91505092915050565b600060208284031215611622576116216113ef565b5b600082013567ffffffffffffffff8111156116405761163f6113f4565b5b61164c848285016115de565b91505092915050565b600081519050919050565b600082825260208201905092915050565b6000819050602082019050919050565b61168a816113f9565b82525050565b600081519050919050565b600082825260208201905092915050565b60005b838110156116ca5780820151818401526020810190506116af565b838111156116d9576000848401525b50505050565b60006116ea82611690565b6116f4818561169b565b93506117048185602086016116ac565b61170d816114d0565b840191505092915050565b600073ffffffffffffffffffffffffffffffffffffffff82169050919050565b600061174382611718565b9050919050565b61175381611738565b82525050565b600060a0830160008301516117716000860182611681565b506020830151848203602086015261178982826116df565b915050604083015161179e604086018261174a565b5060608301516117b16060860182611681565b5060808301516117c46080860182611681565b508091505092915050565b60006117db8383611759565b905092915050565b6000602082019050919050565b60006117fb82611655565b6118058185611660565b93508360208202850161181785611671565b8060005b85811015611853578484038952815161183485826117cf565b945061183f836117e3565b925060208a0199505060018101905061181b565b50829750879550505050505092915050565b6000602082019050818103600083015261187f81846117f0565b905092915050565b600060a08301600083015161189f6000860182611681565b50602083015184820360208601526118b782826116df565b91505060408301516118cc604086018261174a565b5060608301516118df6060860182611681565b5060808301516118f26080860182611681565b508091505092915050565b600060208201905081810360008301526119178184611887565b905092915050565b6000819050919050565b600061194461193f61193a84611718565b61191f565b611718565b9050919050565b600061195682611929565b9050919050565b60006119688261194b565b9050919050565b6119788161195d565b82525050565b6000602082019050611993600083018461196f565b92915050565b6119a281611738565b82525050565b60006040820190506119bd6000830185611999565b6119ca602083018461145c565b9392505050565b60008115159050919050565b6119e6816119d1565b81146119f157600080fd5b50565b600081519050611a03816119dd565b92915050565b600060208284031215611a1f57611a1e6113ef565b5b6000611a2d848285016119f4565b91505092915050565b6000606082019050611a4b600083018661145c565b8181036020830152611a5d8185611887565b9050611a6c604083018461145c565b949350505050565b600082825260208201905092915050565b7f596f7520646f6e2774206861766520656e6f756768206d6f6e65790000000000600082015250565b6000611abb601b83611a74565b9150611ac682611a85565b602082019050919050565b60006020820190508181036000830152611aea81611aae565b9050919050565b7f4e487b7100000000000000000000000000000000000000000000000000000000600052601160045260246000fd5b6000611b2b826113f9565b9150611b36836113f9565b9250827fffffffffffffffffffffffffffffffffffffffffffffffffffffffffffffffff03821115611b6b57611b6a611af1565b5b828201905092915050565b7f596f7520646f6e277420696e766573742074686174206d756368206d6f6e6579600082015250565b6000611bac602083611a74565b9150611bb782611b76565b602082019050919050565b60006020820190508181036000830152611bdb81611b9f565b9050919050565b6000611bed826113f9565b9150611bf8836113f9565b9250817fffffffffffffffffffffffffffffffffffffffffffffffffffffffffffffffff0483118215151615611c3157611c30611af1565b5b828202905092915050565b6000606082019050611c516000830186611999565b611c5e6020830185611999565b611c6b604083018461145c565b949350505050565b7f596f7520646964206e6f7420696e7665737420616e79206d6f6e657920746f2060008201527f74686973206661726d0000000000000000000000000000000000000000000000602082015250565b6000611ccf602983611a74565b9150611cda82611c73565b604082019050919050565b60006020820190508181036000830152611cfe81611cc2565b9050919050565b7f4e487b7100000000000000000000000000000000000000000000000000000000600052601260045260246000fd5b6000611d3f826113f9565b9150611d4a836113f9565b925082611d5a57611d59611d05565b5b828204905092915050565b7f4e487b7100000000000000000000000000000000000000000000000000000000600052602260045260246000fd5b60006002820490506001821680611dac57607f821691505b60208210811415611dc057611dbf611d65565b5b50919050565b7f4e487b7100000000000000000000000000000000000000000000000000000000600052603260045260246000fd5b6000611e00826113f9565b91507fffffffffffffffffffffffffffffffffffffffffffffffffffffffffffffffff821415611e3357611e32611af1565b5b60018201905091905056fea2646970667358221220c8182f04dc37d2a6464805b76cae649c54f3adf1ba72945feeff4405a00af0cb64736f6c63430008090033",
    "linkReferences": {},
    "deployedLinkReferences": {}
}